:020000040800F2
:10000000000001201D0700086D0700086D070008AB
:100010006D0700086D0700086D070008000000006C
:100020000000000000000000000000006D07000854
:100030006D070008000000006D0700086D0700084C
:100040006D0700086D0700086D0700086D070008C0
:100050006D0700086D0700086D0700086D070008B0
:100060006D0700086D0700086D0700086D070008A0
:100070006D0700086D0700086D0700086D07000890
:100080006D0700086D0700086D07000800000000FC
:100090000000000000000000000000006D070008E4
:1000A0006D0700086D0700086D0700086D07000860
:1000B0006D0700086D0700086D0700086D07000850
:1000C0006D0700086D0700086D0700086D07000840
:1000D0006D0700086D0700086D07000800000000AC
:1000E0006D0700086D0700086D070008000000009C
:1000F0000000000000000000000000006D07000884
:10010000000000006D0700086D0700086D0700087B
:1001100000000000000000000000000000000000DF
:100120006D0700086D0700086D0700086D070008DF
:100130006D07000800000000000000000000000043
:100140000000000000000000000000006D07000833
:100150006D0700086D0700086D0700086D070008AF
:100160006D0700086D070008000000000000000097
:10017000000000000000000000000000000000007F
:10018000000000006D0700080000000000000000F3
:040190006D070008EF
:1001940010B5054C237833B9044B13B10448AFF3BD
:1001A40000800123237010BD4800002000000000DF
:1001B400B807000808B5034B1BB103490348AFF364
:1001C400008008BD000000004C000020B8070008B3
:1001D40090B482B000AF0346FB71FB79413BFB71E5
:1001E400FA790E4913465B001344DB000B441B6889
:1001F4001968FB79012202FA03F31C46FA790748CD
:1002040013465B001344DB0003441B6841EA040209
:100214001A6000BF0837BD4690BC7047000000203C
:1002240090B482B000AF0446084611461A462346ED
:10023400FB710346BB710B467B7113463B71FB7923
:10024400413BFB71FA79594913465B001344DB00C7
:100254000B4404331B681968BB795B00032202FA60
:1002640003F3DB431C46FA79504813465B001344FE
:10027400DB00034404331B6801EA04021A60FA79C0
:100284004A4913465B001344DB000B4404331B68E8
:1002940019687A79BB795B0002FA03F31C46FA7990
:1002A400424813465B001344DB00034404331B68D9
:1002B40041EA04021A60FA793C4913465B0013448C
:1002C400DB000B4408331B681968BB79012202FA6E
:1002D40003F3DB431C46FA79344813465B001344AA
:1002E400DB00034408331B6801EA04021A60FA794C
:1002F4002E4913465B001344DB000B4408331B6890
:1003040019683B7903F00102BB7902FA03F31C4636
:10031400FA79264813465B001344DB000344083390
:100324001B6841EA04021A60FA79204913465B000B
:100334001344DB000B440C331B681968BB795B0066
:10034400032202FA03F3DB431C46FA7917481346E7
:100354005B001344DB0003440C331B6801EA040212
:100364001A60FA79114913465B001344DB000B440D
:100374000C331B6819683B795B1003F00302BB79EB
:100384005B0002FA03F31C46FA79084813465B0043
:100394001344DB0003440C331B6841EA04021A6073
:1003A40000BF0837BD4690BC704700BF0000002066
:1003B40090B484B000AF0346FB710B46BB71134687
:1003C4007B71FB79413BFB71FA792D4913465B0044
:1003D4001344DB000B4404331B681B68BA795200D6
:1003E400032101FA02F21A40BB795B0022FA03F3FB
:1003F400012B3DD17B79002B1BD0FA792049134680
:100404005B001344DB000B4414331B681968BB798D
:10041400012202FA03F31C46FA79194813465B00D9
:100424001344DB00034414331B6841EA04021A60DA
:100434001BE0FA79124913465B001344DB000B44BA
:1004440014331B681968BB79012202FA03F3DB43F6
:100454001C46FA790A4813465B001344DB00034444
:1004640014331B6801EA04021A600023FB7301E0E1
:100474000123FB73FB7B18461037BD4690BC7047C5
:100484000000002080B485B000AF03460A46FB712B
:100494001346BB71FB79413BFB710023FB73FA7973
:1004A4000C4913465B001344DB000B4410331B68F8
:1004B4001B68BA79012101FA02F21A40BB7922FAC7
:1004C40003F3FB73FB7B18461437BD465DF8047BCE
:1004D400704700BF0000002080B483B000AF002349
:1004E4007B6002E07B6801337B607B6847F22F52BC
:1004F4009342F7D900BF00BF0C37BD465DF8047BBB
:10050400704780B582B000AF4220FFF761FE002340
:10051400FB7108E0F979002301224220FFF780FEF5
:10052400FB790133FB71FB79022BF3D90323FB71B4
:1005340008E0F979022300224220FFF771FEFB79DB
:100544000133FB71FB79062BF3D900BF00BF0837D9
:10055400BD4680BD80B582B000AF374B1B78002B01
:1005640065D10023FB715FE0FA79344BA3FB0213DE
:1005740059080B465B000B44D31ADBB20022194620
:100584004220FFF715FFFB795A1C2D4B83FB0231E8
:10059400D317C91A0B465B000B44D11ACBB2012204
:1005A40019464220FFF704FFFB799A1C244B83FB76
:1005B4000231D317C91A0B465B000B44D11ACBB2D4
:1005C400012219464220FFF7F3FE0323BB7125E005
:1005D400BB7919464220FFF755FF0346002B1AD179
:1005E400FFF77AFFBB7919464220FFF74BFF03461A
:1005F400002B10D1104B01221A70BB79DA1EF97945
:10060400104813465B00134403440B441A780E4B02
:100614001A7000F02BF8BB790133BB71BB79062B40
:10062400D6D9FB790133FB71FB79022B9CD900BF2E
:100634000837BD4680BD00BF64000020ABAAAAAA4B
:1006440056555555300000206500002080B400AF99
:10065400044B00221A70044B1B781846BD465DF803
:10066400047B7047640000206500002080B582B0E0
:1006740000AFFFF7EBFF0346BB710023FB7115E0EE
:10068400BB790E4AD35C1946FB79012202FA03F3C3
:1006940001EA0302FB7942FA03F3DAB2FB79194661
:1006A4004120FFF785FEFB790133FB71FB79062BB3
:1006B400E6D900BF00BF0837BD4680BD3C0000201E
:1006C40080B582B000AF4120FFF782FD0023FB71AB
:1006D40008E0F979002301224120FFF7A1FDFB790D
:1006E4000133FB71FB79062BF3D9FFF70AFFFFF700
:1006F40031FFFCE780B400AF064BD3F88830054ADD
:1007040043F47003C2F8883000BFBD465DF8047B33
:10071400704700BF00ED00E0DFF834D00D480E490B
:100724000E4A002302E0D458C4500433C4188C4247
:10073400F9D30B4A0B4C002301E013600432A242AC
:10074400FBD3FFF7D7FF00F011F8FFF7B9FF7047AD
:10075400000001200000002048000020D807000805
:100764004800002068000020FEE7000070B50D4D31
:100774000D4C641BA4100026A64209D10B4D0C4C51
:1007840000F018F8641BA4100026A64205D170BD21
:1007940055F8043B98470136EEE755F8043B984773
:1007A4000136F2E7D0070008D0070008D007000898
:1007B400D4070008F8B500BFF8BC08BC9E467047D3
:0C07C400F8B500BFF8BC08BC9E467047AA
:0407D000B901000863
:0407D4009501000883
:1007D8003038024000000240040002400C00024091
:1007E8001000024014000240303802400004024069
:1007F800040402400C0402401004024014040240A5
:100808000102030405060708090000003F065B4FC4
:08081800666D7D077F6F000093
:040000050800071DCB
:00000001FF
