:020000040800F2
:1000000000000120C90200081903000819030008B4
:100010001903000819030008190300080000000074
:1000200000000000000000000000000019030008AC
:100030001903000800000000190300081903000854
:100040001903000819030008190300081903000820
:100050001903000819030008190300081903000810
:100060001903000819030008190300081903000800
:1000700019030008190300081903000819030008F0
:100080001903000819030008190300080000000004
:10009000000000000000000000000000190300083C
:1000A00019030008190300081903000819030008C0
:1000B00019030008190300081903000819030008B0
:1000C00019030008190300081903000819030008A0
:1000D00019030008190300081903000800000000B4
:1000E00019030008190300081903000800000000A4
:1000F00000000000000000000000000019030008DC
:100100000000000019030008190300081903000883
:1001100000000000000000000000000000000000DF
:10012000190300081903000819030008190300083F
:10013000190300080000000000000000000000009B
:10014000000000000000000000000000190300088B
:10015000190300081903000819030008190300080F
:100160001903000819030008000000000000000047
:10017000000000000000000000000000000000007F
:10018000000000001903000800000000000000004B
:040190001903000847
:1001940010B5054C237833B9044B13B10448AFF3BD
:1001A40000800123237010BD000000200000000027
:1001B4002807000808B5034B1BB103490348AFF3F4
:1001C400008008BD0000000004000020280700088B
:1001D40080B586B002AF0523FB600AE0F96800230E
:1001E400009300230122422000F096F8FB680133BB
:1001F400FB60FB68072BF1DD012300930023002241
:100204000321422000F088F80123BB60032142202F
:1002140000F034FA0346FB714FF47A7000F019F8D9
:10022400FB79002BF2D00321422000F027FA034689
:10023400002BEBD1BB685A4203F0070302F007021C
:1002440058BF5342184600F015F8BB680133BB6031
:10025400DCE780B483B000AF786000BF7B685A1ECF
:100264007A60002BFAD100BF00BF0C37BD465DF8A1
:10027400047B704780B582B000AF7860074B5B6940
:10028400064A23F0E00353617B681A4605214220A5
:1002940000F084F900BF0837BD4680BD0004024069
:1002A40080B400AF064BD3F88830054A43F470039A
:1002B400C2F8883000BFBD465DF8047B704700BFBC
:1002C40000ED00E0DFF834D00D480E490E4A00235B
:1002D40002E0D458C4500433C4188C42F9D30B4AF6
:1002E4000B4C002301E013600432A242FBD3FFF75E
:1002F400D7FF00F0F3F9FFF76BFF70470000012010
:100304000000002000000020480700080000002032
:100314001C000020FEE7000080B485B000AFB96087
:100324007A603B600346FB73FB7B412B03D0422B7B
:1003340000F0978025E1964B1B6B954A43F001032F
:1003440013637B68032B3CD801A252F823F000BF4F
:10035400650300087F03000897030008AF03000843
:100364008C4B1B68BA685200032101FA02F2D24393
:100374001146884A0B40136023E0864B1B68BA6819
:100384005200012101FA02F21146824A0B43136022
:1003940017E0804B1B68BA685200022101FA02F28E
:1003A40011467C4A0B4313600BE07A4B1B68BA6816
:1003B4005200032101FA02F21146764A0B431360FC
:1003C40000BF3B68002B03D03B68012B0CD016E028
:1003D400704B5B680121BA6801FA02F2D2431146FC
:1003E4006C4A0B4053600AE06A4B5B680121BA68AF
:1003F40001FA02F21146674A0B43536000BF00231F
:10040400BB61BB69022B13D0BB69022B27D8BB6924
:10041400002B18D0BB69012B21D15E4BDB68012175
:10042400BA6801FA02F211465A4A0B43D36017E044
:10043400584BDB680221BA6801FA02F21146554AA8
:100444000B43D3600CE0534BDB680321BA6801FA19
:1004540002F2D24311464F4A0B40D36000E000BF82
:100464008FE04B4B1B6B4A4A43F0020313637B68D8
:10047400032B3CD801A252F823F000BF91040008DA
:10048400AB040008C3040008DB040008424B1B68EB
:10049400BA685200032101FA02F2D24311463E4ADD
:1004A4000B40136023E03C4B1B68BA6852000121E7
:1004B40001FA02F21146384A0B43136017E0364B37
:1004C4001B68BA685200022101FA02F21146324A4C
:1004D4000B4313600BE0304B1B68BA6852000321D6
:1004E40001FA02F211462C4A0B43136000BF3B6829
:1004F400002B03D03B68012B0CD016E0264B5B6825
:100504000121BA6801FA02F2D2431146224A0B4091
:1005140053600AE0204B5B680121BA6801FA02F2D9
:1005240011461D4A0B43536000BF0023BB61BB69E6
:10053400012B03D0BB69022B0BD015E0164BDB68F3
:100544000121BA6801FA02F21146134A0B43D3603F
:1005540016E0114BDB680221BA6801FA02F2114677
:100564000D4A0B43D3600BE00B4BDB680121BA68E7
:1005740001FA02F2D2431146074A0B40D36000BF8E
:1005840000BF00BF1437BD465DF8047B704700BF51
:1005940000380240000002400004024080B487B0EA
:1005A40000AF0346B9607A60FB73FB7B412B02D03A
:1005B400422B2CD057E02F4B1B68BA685200032102
:1005C40001FA02F21A40BB685B0022FA03F3012B22
:1005D4001AD17B68002B09D0264B5A697968BB680D
:1005E40001FA03F3234913434B610AE0214B5B698E
:1005F4000121BA6801FA02F2D24311461D4A0B40A6
:1006040053610023FB752EE00123FB752BE01A4B8D
:100614001B68BA685200032101FA02F21A40BB684F
:100624005B0022FA03F3012B1AD17B68002B09D05B
:10063400114B5A697968BB6801FA03F30E491343F5
:100644004B610AE00C4B5B690121BA6801FA02F2C2
:10065400D2431146084A0B4053610023FB7501E065
:100664000123FB7500BFFB7D18461C37BD465DF8B2
:10067400047B7047000002400004024080B485B04F
:1006840000AF03463960FB71FB79412B02D0422B4A
:100694000DD019E00F4B1B680E4B1A693B6822FA08
:1006A40003F3DBB203F00103FB73FB7B0CE00A4BA7
:1006B4001B68094B1A693B6822FA03F3DBB203F0A7
:1006C4000103FB73FB7BFFE718461437BD465DF857
:1006D400047B7047000002400004024070B50D4DD9
:1006E4000D4C641BA4100026A64209D10B4D0C4CE2
:1006F40000F018F8641BA4100026A64205D170BDB2
:1007040055F8043B98470136EEE755F8043B984703
:100714000136F2E7400700084007000840070008D8
:1007240044070008F8B500BFF8BC08BC9E467047F3
:0C073400F8B500BFF8BC08BC9E4670473A
:04074000B9010008F3
:040744009501000813
:04000005080002C924
:00000001FF
