:020000040800F2
:100000000000012075020008C5020008C5020008B2
:10001000C5020008C5020008C50200080000000073
:10002000000000000000000000000000C502000801
:10003000C502000800000000C5020008C502000853
:10004000C5020008C5020008C5020008C502000874
:10005000C5020008C5020008C5020008C502000864
:10006000C5020008C5020008C5020008C502000854
:10007000C5020008C5020008C5020008C502000844
:10008000C5020008C5020008C50200080000000003
:10009000000000000000000000000000C502000891
:1000A000C5020008C5020008C5020008C502000814
:1000B000C5020008C5020008C5020008C502000804
:1000C000C5020008C5020008C5020008C5020008F4
:1000D000C5020008C5020008C502000800000000B3
:1000E000C5020008C5020008C502000800000000A3
:1000F000000000000000000000000000C502000831
:1001000000000000C5020008C5020008C502000882
:1001100000000000000000000000000000000000DF
:10012000C5020008C5020008C5020008C502000893
:10013000C5020008000000000000000000000000F0
:10014000000000000000000000000000C5020008E0
:10015000C5020008C5020008C5020008C502000863
:10016000C5020008C50200080000000000000000F1
:10017000000000000000000000000000000000007F
:1001800000000000C50200080000000000000000A0
:04019000C50200089C
:1001940010B5054C237833B9044B13B10448AFF3BD
:1001A40000800123237010BD000000200000000027
:1001B4001003000808B5034B1BB103490348AFF310
:1001C400008008BD000000000400002010030008A7
:1001D40080B483B000AF1A4B1B6B194A43F0010380
:1001E4001363184B1B68174A43F001031360154B44
:1001F4005B68144A23F001035360134B3B60114BBB
:100204005B69104A43F00103536100237B6002E001
:100214007B6801337B607A683B689A42F8DB094B60
:100224005B69084A23F00103536100237B6002E009
:100234007B6801337B607A683B689A42F8DBDCE7D1
:10024400003802400000024040420F0080B400AF7A
:10025400064BD3F88830054A43F47003C2F888305B
:1002640000BFBD465DF8047B704700BF00ED00E0B1
:10027400DFF834D00D480E490E4A002302E0D4586A
:10028400C4500433C4188C42F9D30B4A0B4C0023DA
:1002940001E013600432A242FBD3FFF7D7FF00F062
:1002A40011F8FFF795FF70470000012000000020BF
:1002B4000000002030030008000000201C00002083
:1002C400FEE7000070B50D4D0D4C641BA410002614
:1002D400A64209D10B4D0C4C00F018F8641BA41075
:1002E4000026A64205D170BD55F8043B9847013657
:1002F400EEE755F8043B98470136F2E72803000877
:1003040028030008280300082C030008F8B500BFE0
:10031400F8BC08BC9E467047F8B500BFF8BC08BCE2
:040324009E4670473A
:04032800B90100080F
:04032C00950100082F
:040000050800027578
:00000001FF
