:020000040800F2
:1000000000000120B50200080503000805030008F0
:1000100005030008050300080503000800000000B0
:1000200000000000000000000000000005030008C0
:100030000503000800000000050300080503000890
:100040000503000805030008050300080503000870
:100050000503000805030008050300080503000860
:100060000503000805030008050300080503000850
:100070000503000805030008050300080503000840
:100080000503000805030008050300080000000040
:100090000000000000000000000000000503000850
:1000A0000503000805030008050300080503000810
:1000B0000503000805030008050300080503000800
:1000C00005030008050300080503000805030008F0
:1000D00005030008050300080503000800000000F0
:1000E00005030008050300080503000800000000E0
:1000F00000000000000000000000000005030008F0
:1001000000000000050300080503000805030008BF
:1001100000000000000000000000000000000000DF
:10012000050300080503000805030008050300088F
:1001300005030008000000000000000000000000AF
:10014000000000000000000000000000050300089F
:10015000050300080503000805030008050300085F
:10016000050300080503000800000000000000006F
:10017000000000000000000000000000000000007F
:10018000000000000503000800000000000000005F
:04019000050300085B
:1001940010B5054C237833B9044B13B10448AFF3BD
:1001A40000800123237010BD000000200000000027
:1001B400B406000808B5034B1BB103490348AFF369
:1001C400008008BD0000000004000020B406000800
:1001D40080B588B002AF00237B6100233B611E4AD7
:1001E4003B1D07CA03C31A8000237B610AE07969B7
:1001F4000023009300230122412000F083F87B694F
:1002040001337B617B69062BF1DD00233B611DE03B
:1002140000237B6108E07B6900221946412000F03D
:10022400B3F97B6901337B617B69062BF3DD3A1DEE
:100234003B6913441B781A460021412000F0A4F9BD
:10024400064800F00DF83B6901333B613B69092B1B
:10025400DEDD00233B61D8E7CC06000840420F00F6
:1002640080B485B000AF78600023FB6002E0FB68D7
:100274000133FB60FA687B689A42F8DB00BF00BF79
:100284001437BD465DF8047B7047000080B400AFAE
:10029400064BD3F88830054A43F47003C2F888301B
:1002A40000BFBD465DF8047B704700BF00ED00E071
:1002B400DFF834D00D480E490E4A002302E0D4582A
:1002C400C4500433C4188C42F9D30B4A0B4C00239A
:1002D40001E013600432A242FBD3FFF7D7FF00F022
:1002E400C3F9FFF775FF70470000012000000020EC
:1002F40000000020E0060008000000201C00002090
:10030400FEE7000080B485B000AFB9607A603B605E
:100314000346FB73FB7B412B03D0422B00F09780F9
:1003240025E1964B1B6B954A43F0010313637B68ED
:10033400032B3CD801A252F823F000BF510300085C
:100344006B030008830300089B0300088C4B1B68A5
:10035400BA685200032101FA02F2D2431146884AD4
:100364000B40136023E0864B1B68BA6852000121DE
:1003740001FA02F21146824A0B43136017E0804BE4
:100384001B68BA685200022101FA02F211467C4A43
:100394000B4313600BE07A4B1B68BA6852000321CD
:1003A40001FA02F21146764A0B43136000BF3B6820
:1003B400002B03D03B68012B0CD016E0704B5B681C
:1003C4000121BA6801FA02F2D24311466C4A0B4089
:1003D40053600AE06A4B5B680121BA6801FA02F2D1
:1003E4001146674A0B43536000BF0023BB61BB69DE
:1003F400022B13D0BB69022B27D8BB69002B18D062
:10040400BB69012B21D15E4BDB680121BA6801FA7B
:1004140002F211465A4A0B43D36017E0584BDB688B
:100424000221BA6801FA02F21146554A0B43D3601D
:100434000CE0534BDB680321BA6801FA02F2D243A1
:1004440011464F4A0B40D36000E000BF8FE04B4B96
:100454001B6B4A4A43F0020313637B68032B3CD8AB
:1004640001A252F823F000BF7D040008970400089D
:10047400AF040008C7040008424B1B68BA68520066
:10048400032101FA02F2D24311463E4A0B401360A3
:1004940023E03C4B1B68BA685200012101FA02F2C6
:1004A4001146384A0B43136017E0364B1B68BA6891
:1004B4005200022101FA02F21146324A0B43136040
:1004C4000BE0304B1B68BA685200032101FA02F2B8
:1004D40011462C4A0B43136000BF3B68002B03D02A
:1004E4003B68012B0CD016E0264B5B680121BA68EF
:1004F40001FA02F2D2431146224A0B4053600AE049
:10050400204B5B680121BA6801FA02F211461D4AC8
:100514000B43536000BF0023BB61BB69012B03D0B5
:10052400BB69022B0BD015E0164BDB680121BA68BE
:1005340001FA02F21146134A0B43D36016E0114B41
:10054400DB680221BA6801FA02F211460D4A0B4334
:10055400D3600BE00B4BDB680121BA6801FA02F2AD
:10056400D2431146074A0B40D36000BF00BF00BF0F
:100574001437BD465DF8047B704700BF0038024065
:10058400000002400004024080B487B000AF03467C
:10059400B9607A60FB73FB7B412B02D0422B2CD0D9
:1005A40057E02F4B1B68BA685200032101FA02F28C
:1005B4001A40BB685B0022FA03F3012B1AD17B6853
:1005C400002B09D0264B5A697968BB6801FA03F3FA
:1005D400234913434B610AE0214B5B690121BA684B
:1005E40001FA02F2D24311461D4A0B405361002323
:1005F400FB752EE00123FB752BE01A4B1B68BA68D0
:100604005200032101FA02F21A40BB685B0022FA8D
:1006140003F3012B1AD17B68002B09D0114B5A69C3
:100624007968BB6801FA03F30E4913434B610AE08E
:100634000C4B5B690121BA6801FA02F2D2431146FC
:10064400084A0B4053610023FB7501E00123FB754D
:1006540000BFFB7D18461C37BD465DF8047B704720
:10066400000002400004024070B50D4D0D4C641BA7
:10067400A4100026A64209D10B4D0C4C00F018F82A
:10068400641BA4100026A64205D170BD55F8043B96
:1006940098470136EEE755F8043B98470136F2E7F0
:1006A400D8060008D8060008D8060008DC060008AA
:1006B400F8B500BFF8BC08BC9E467047F8B500BF4B
:0806C400F8BC08BC9E4670471B
:0C06CC003F065B4F666D7D077F6F0000EE
:0406D800B90100085C
:0406DC00950100087C
:04000005080002B538
:00000001FF
